:03000000020817DC
:0C081700787FE4F6D8FD75813802085E99
:100BFC003F065B4F666D7D077F6F777C395E797141
:030C0C00000000E5
:100BE900012701012800042900000000042DFFFF4E
:020BF900FFFFFC
:10078A00E4F9F8AF2CAE2BAD2AAC29120ACDAC0095
:10079A00AD01AE02AF0322E4FAF9F8120ACD74FCF5
:1007AA002FF582740B3EF583E49322AB12E51424F1
:1007BA0001F9E43513FA02011BAB1AAA1BA91C1290
:1007CA00011BC36480948822AB20AA21A9221201AA
:1007DA00FAAB1DAA1EA91F22AB0FAA10A91102016A
:1007EA001BAB0FAA10A91102011B120183E515A266
:1007FA00E713A2E713227D007E007F020200D3AB3B
:0D080A0012AA13A91422AB17AA18A91922CB
:0B0A8200E4F50CFB7A007908120B1160
:100A8D00780D7C007BFF7A0C790D12080075120031
:100A9D0075130075140D7B007A00790C1208A3787C
:100AAD00127C007B007A00790D1208007514007518
:0E0ABD0015007516087B007A00790C12042DC6
:020ACB0080C0E9
:100B11008B0F8A108911D2A6E4F531F532F533F540
:100B210034F535F536F537F5387F0812092BAB0F5B
:070B3100AA10A9110209E658
:0608A3008B0F8A10891181
:1008A90012011B30E7101206DFEF640C70611207AA
:0C08B900EB547F0209151207EB20E253FC
:1008C5001206DF8F15E515604A5403700D1207B542
:1008D50044041207F41208098036E515640F600513
:1008E500E515B40E111207B54404120183E515246C
:1008F500F7120809801A1207B544021207F4FFC35C
:10090500E5159FFF75F00A1200F9AFF0120809EF1F
:0309150012018349
:100918001207EBFF652760081207B544011201832F
:020928008F2717
:01092A0022AA
:06042D008B0F8A108911FB
:1004330012011B30E705AF13020B5E1207E2FF3018
:10044300E203020610E51320E2030204E2E51224AC
:10045300FE602214602614602D146050146073240F
:10046300056003020524EF5403600302052412010F
:100473001B4401800B12011B444080041207E2E479
:10048300120183020524751A00751B00751C28755B
:100493001D00751E00751F298514208515218516DD
:1004A30022AB0FAA10A9111206118075D3E5286497
:1004B300809480406C1528AF2CAE2BAD2AAC29E478
:1004C3007B0AFAF9F8120ACD8F2C8E2B8D2A8C29F0
:1004D300804FE4F528F52CF52BF52AF5298042E524
:1004E3001330E13DC3E5286480948850340528E443
:1004F3007F0AFEFDFCAB2CAA2BA92AA82912019581
:10050300A804A905AA06AB07AF12EF3395E0FEFDD9
:10051300FCEB2FF52CEA3EF52BE93DF52AE83CF5FB
:1005230029E51330E206E512640260081207E2547B
:10053300BF120183E51320E00302060B1207E2203A
:10054300E6030205F3E47B0AFAF9F8AF2CAE2BAD10
:100553002AAC29120ACD74FC2BF582740B3AF5836D
:10056300E493F531E47B64FA12078B7B0A1207A14B
:10057300F5327BE87A0312078A7B641207A1F5330D
:100583007B107A2712078AE47BE87A031207A3F524
:10059300347BA07A867901780012078DE47B107A88
:1005A300271207A3F5357B407A42790F78001207AB
:1005B3008D7BA07A86790178001207A5F5367B80BA
:1005C3007A967998780012078D7B407A42790F7872
:1005D300001207A5F5377B007AE179F57805120754
:1005E3008D7B807A96799878001207A5F538801864
:1005F30075314075324075334075344075354075FB
:0D0603003640753740753840AF2812092B7E
:0106100022C7
:100B5E00EF30E016E4F53175325075335C75345074
:100B6E00753550753679F537F538120BD27F080288
:020B7E00092B41
:060611008B178A188919FD
:1006170012011B5403146028146038146054240317
:1006270060030206CA1207C340271207D212023418
:10063700C31201E46003020692C2A7C2A60206CA59
:100647001207C3400C1207D2120234C31201E4602E
:100657001780381207C3500280311207DB1201FAE4
:100667008F308E2F8D2E8C2D120810740112016180
:1006770080511207C340141207DB1201FAAB30AAEC
:100687002FA92EA82DC31201E4600A120810120127
:100697001B4480802BAF30AE2FAD2EAC2DAB20AAE4
:1006A70021A92212021AAB20AA21A92212099774A2
:1006B700FFF530F52FF52EF52D12081012011BE46A
:1006C700120183AB1AAA1BA91CE41201831207DBD0
:0706D70012025400000000B4
:0106DE0022F9
:1006DF00E4F5167590F0E59064F070030207877FDC
:0F06EF000A7E00120BA1E59064F07003020787EA
:1006FE00E4F517F5187590F0AF90EF2450601124C3
:10070E00E0601224F06013247070147516018012CC
:10071E00751605800D751609800875160D80037FF8
:10072E00002275900FAF90EF24F9601D24FC601528
:10073E0024FE600B14701774032516F5168012052F
:10074E00160516800C0516800885161680037F0088
:10075E0022E51664086022C3E518940AE517940092
:10076E005017E590640F60117F327E00120BA105C9
:09077E0018E5187002051780DE71
:02078700AF16AB
:01078900224D
:10092B00E4FEEEC39F5064EEB40800504D90093FB7
:10093B00F828287302095702095B02096302096749
:10094B0002096F02097302097B02097FD2A280029E
:10095B00C2A2D2A3D2A48022D2A28002C2A2C2A3DC
:10096B00D2A48016D2A28002C2A2D2A3C2A4800AB1
:10097B00D2A28002C2A2C2A3C2A474312EF8E6F5A1
:0B098B00807D32DDFEE4F5800E8097D9
:01099600223E
:100BA100D3EF9400EE9400400F7D267C0DDCFEDD3A
:080BB100FAEF1F70EB1E80E853
:010BB9002219
:100BD200E4FFE4FEC2A50EBE14FAE4FED2A50EBEE8
:060BE20014FA0FBF0AEC3B
:010BE80022EA
:1009970012011BFD900001120134F5239000021291
:1009A7000134F524900003120134F525E4FF120900
:1009B700DBAD237F011209DBAD247F02120BBA7F67
:1009C700327E00120BA1AD257F03120BBA7F327E58
:0409D70000020BA16E
:0B09DB00120BBA7F327E00120BA1222B
:1009E6008B128A138914E4FF120A117F01120A116D
:1009F6007F02120A2A12018374012514F514E435C4
:0B0A060013F5137F03120A2A0201837C
:100A1100120B80AB12AA13A914EF120183740125E2
:100A210014F514E43513F51322120B80AB12AA133B
:040A3100A914EF22F3
:050C1E00120C23D2A11D
:080C23007F017E02DEFEDFFA14
:010C2B0022A6
:0F0C0F00D2A0120C1EC2A0120C23C2A1020C23F1
:0A0C2C00C2A0120C1ED2A0020C237D
:070A3500120C0F7D017FA0F0
:040A3C00AB07A90556
:100A4000E4FDFAEBC4131313540124FF92A0EB2529
:100A5000E0FB120C1EC2A1120C230DBD08E5D2A0B2
:100A6000120C23D2A130A012B9010F0AEAD394C804
:100A700040F3C2A1120C237F0022C2A1120C237FDB
:010A80000174
:010A81002252
:100B3800E4FDFCD2A0120C23D2A1120C23EC25E078
:100B4800FCA2A0E4334204120C23C2A1120C230D10
:050B5800BD08E5AF043B
:010B5D002275
:100BBA008F26AC05120A357D01AF26120A3CAF0416
:080BCA00E4FD120A3C020C2CB0
:020B8000AC07C0
:100B8200120A35AF047D01120A3C120C0F7D017F5F
:0E0B9200A1120A3C120B38AD07120C2CAF0555
:010BA0002232
:10082300020A82E493A3F8E493A34003F68001F25F
:1008330008DFF48029E493A3F85407240CC8C333D6
:10084300C4540F4420C8834004F456800146F6DFA5
:10085300E4800B0102040810204080900BE9E47E41
:10086300019360BCA3FF543F30E509541FFEE4939A
:10087300A360010ECF54C025E060A840B8E493A361
:10088300FAE493A3F8E493A3C8C582C8CAC583CA8C
:10089300F0A3C8C582C8CAC583CADFE9DEE780BE44
:010BFB0000F9
:10000300E709F608DFFA8046E709F208DFFA803EDF
:1000130088828C83E709F0A3DFFA8032E309F608CC
:10002300DFFA8078E309F208DFFA807088828C8334
:10003300E309F0A3DFFA806489828A83E0A3F608E8
:10004300DFFA805889828A83E0A3F208DFFA804CC2
:1000530080D280FA80C680D4806980F28033801099
:1000630080A680EA809A80A880DA80E280CA803302
:1000730089828A83ECFAE493A3C8C582C8CCC5837A
:10008300CCF0A3C8C582C8CCC583CCDFE9DEE7804A
:100093000D89828A83E493A3F608DFF9ECFAA9F0C9
:1000A300EDFB2289828A83ECFAE0A3C8C582C8CC1F
:1000B300C583CCF0A3C8C582C8CCC583CCDFEADE38
:1000C300E880DB89828A83E493A3F208DFF980CC9A
:1000D30088F0EF60010E4E60C388F0ED2402B40493
:1000E3000050B9F582EB2402B4040050AF2323453A
:0600F3008223900053730C
:1000F900C2D530F707B2D563F0FF05F030E70CB28F
:10010900D5F4048463F0FF05F080018430D502F44E
:020119000422BE
:10011B00BB010689828A83E0225002E722BBFE02E2
:09012B00E32289828A83E4932215
:10013400BB010CE58229F582E5833AF583E0225080
:1001440006E92582F8E622BBFE06E92582F8E222CA
:0D015400E58229F582E5833AF583E49322E4
:10016100BB010989828A83F8E028F022500327F72E
:1001710022BBFE05F8E328F3228A838982F8E493FF
:02018100282232
:10018300BB010689828A83F0225002F722BBFE015B
:02019300F32255
:10019500E88FF0A4CC8BF0A42CFCE98EF0A42CFC09
:1001A5008AF0EDA42CFCEA8EF0A4CDA8F08BF0A487
:1001B5002DCC3825F0FDE98FF0A42CCD35F0FCEBE6
:1001C5008EF0A4FEA9F0EB8FF0A4CFC5F02ECD39AB
:0F01D500FEE43CFCEAA42DCE35F0FDE43CFC2218
:100ACD00C2D5E830E70FB2D5E4C39BFBE49AFAE454
:100ADD0099F9E498F8EC30E717B2D5120B0312022E
:100AED00AAE4C39BFBE49AFAE499F9E498F880032D
:100AFD001202AA30D50DE4C39FFFE49EFEE49DFDD6
:040B0D00E49CFC2246
:1001E400EB9FF5F0EA9E42F0E99D42F0EC6480C892
:0601F40064809845F02232
:1001FA00BB010789828A830203485005E9F8020392
:10020A003CBBFE05E9F802035489828A8302036033
:10021A00BB010789828A830203B25005E9F8020307
:0A022A00A6BBFE05E9F80203BE22A0
:10023400BB010789828A8302037D5005E9F8020322
:1002440070BBFE05E9F802038989828A830203965A
:10025400BB010789828A830203E35005E9F802039C
:0A026400CABBFE05E9F802041422EB
:10026E0075F008758200EF2FFFEE33FECD33CDCC47
:10027E0033CCC58233C5829BED9AEC99E5829840CA
:10028E000CF582EE9BFEED9AFDEC99FC0FD5F0D6A7
:10029E00E4CEFBE4CDFAE4CCF9A88222B800C1B9D1
:1002AE000059BA002DEC8BF084CFCECDFCE5F0CB0F
:1002BE00F97818EF2FFFEE33FEED33FDEC33FCEB48
:1002CE0033FB10D703994004EB99FB0FD8E5E4F903
:1002DE00FA227818EF2FFFEE33FEED33FDEC33FCF0
:1002EE00C933C910D7059BE99A4007EC9BFCE99AE4
:1002FE00F90FD8E0E4C9FAE4CCFB2275F010EF2F29
:10030E00FFEE33FEED33FDCC33CCC833C810D70728
:10031E009BEC9AE899400AED9BFDEC9AFCE899F863
:0E032E000FD5F0DAE4CDFBE4CCFAE4C8F922F6
:0C033C00E6FC08E6FD08E6FE08E6FF22ED
:0C034800E0FCA3E0FDA3E0FEA3E0FF2228
:0C035400E2FC08E2FD08E2FE08E2FF22E5
:10036000E493FC740193FD740293FE740393FF22E3
:0D037000E6FB08E6F908E6FA08E6CBF822FD
:0C037D00E0F8A3E0F9A3E0FAA3E0FB2203
:0D038900E2FB08E2F908E2FA08E2CBF822F4
:10039600E493F8740193F9740293FA740393FB22BD
:0C03A600ECF608EDF608EEF608EFF62283
:0C03B200ECF0A3EDF0A3EEF0A3EFF022BE
:0C03BE00ECF208EDF208EEF208EFF2227B
:1003CA00D083D082E493F608740193F608740293FA
:0903DA00F608740393F674047331
:1003E300A8828583F0D083D0821203FA1203FA1213
:1003F30003FA1203FAE473E493A3C583C5F0C58338
:10040300C8C582C8F0A3C583C5F0C583C8C582C863
:0104130022C6
:10041400D083D082E493F208740193F208740293B7
:09042400F208740393F2740473EE
:00000001FF
